{
    "_format": "hh-sol-artifact-1",
    "contractName": "NFTMarketplace",
    "sourceName": "contracts/NFTMarketPlace.sol",
    "abi": [
        {
            "inputs": [
                {
                    "internalType": "address",
                    "name": "_nftAddress",
                    "type": "address"
                }
            ],
            "stateMutability": "nonpayable",
            "type": "constructor"
        },
        {
            "anonymous": false,
            "inputs": [
                {
                    "indexed": true,
                    "internalType": "uint256",
                    "name": "listingId",
                    "type": "uint256"
                },
                {
                    "indexed": true,
                    "internalType": "uint256",
                    "name": "tokenId",
                    "type": "uint256"
                },
                {
                    "indexed": false,
                    "internalType": "address",
                    "name": "seller",
                    "type": "address"
                },
                {
                    "indexed": false,
                    "internalType": "uint256",
                    "name": "price",
                    "type": "uint256"
                }
            ],
            "name": "Listed",
            "type": "event"
        },
        {
            "anonymous": false,
            "inputs": [
                {
                    "indexed": true,
                    "internalType": "uint256",
                    "name": "listingId",
                    "type": "uint256"
                },
                {
                    "indexed": true,
                    "internalType": "uint256",
                    "name": "tokenId",
                    "type": "uint256"
                },
                {
                    "indexed": false,
                    "internalType": "address",
                    "name": "buyer",
                    "type": "address"
                },
                {
                    "indexed": false,
                    "internalType": "uint256",
                    "name": "price",
                    "type": "uint256"
                }
            ],
            "name": "Sale",
            "type": "event"
        },
        {
            "inputs": [
                {
                    "internalType": "uint256",
                    "name": "listingId",
                    "type": "uint256"
                }
            ],
            "name": "buyItem",
            "outputs": [],
            "stateMutability": "payable",
            "type": "function"
        },
        {
            "inputs": [],
            "name": "fetchActiveListings",
            "outputs": [
                {
                    "components": [
                        {
                            "internalType": "uint256",
                            "name": "tokenId",
                            "type": "uint256"
                        },
                        {
                            "internalType": "address payable",
                            "name": "seller",
                            "type": "address"
                        },
                        {
                            "internalType": "uint256",
                            "name": "price",
                            "type": "uint256"
                        },
                        {
                            "internalType": "bool",
                            "name": "isActive",
                            "type": "bool"
                        }
                    ],
                    "internalType": "struct NFTMarketplace.Listing[]",
                    "name": "",
                    "type": "tuple[]"
                }
            ],
            "stateMutability": "view",
            "type": "function"
        },
        {
            "inputs": [
                {
                    "internalType": "uint256",
                    "name": "tokenId",
                    "type": "uint256"
                },
                {
                    "internalType": "uint256",
                    "name": "price",
                    "type": "uint256"
                }
            ],
            "name": "listItem",
            "outputs": [],
            "stateMutability": "nonpayable",
            "type": "function"
        },
        {
            "inputs": [],
            "name": "listingCount",
            "outputs": [
                {
                    "internalType": "uint256",
                    "name": "",
                    "type": "uint256"
                }
            ],
            "stateMutability": "view",
            "type": "function"
        },
        {
            "inputs": [
                {
                    "internalType": "uint256",
                    "name": "",
                    "type": "uint256"
                }
            ],
            "name": "listings",
            "outputs": [
                {
                    "internalType": "uint256",
                    "name": "tokenId",
                    "type": "uint256"
                },
                {
                    "internalType": "address payable",
                    "name": "seller",
                    "type": "address"
                },
                {
                    "internalType": "uint256",
                    "name": "price",
                    "type": "uint256"
                },
                {
                    "internalType": "bool",
                    "name": "isActive",
                    "type": "bool"
                }
            ],
            "stateMutability": "view",
            "type": "function"
        },
        {
            "inputs": [],
            "name": "nft",
            "outputs": [
                {
                    "internalType": "contract MyNFT",
                    "name": "",
                    "type": "address"
                }
            ],
            "stateMutability": "view",
            "type": "function"
        }
    ],
    "bytecode": "0x6080604052348015600f57600080fd5b50604051610875380380610875833981016040819052602c916050565b600080546001600160a01b0319166001600160a01b0392909216919091179055607e565b600060208284031215606157600080fd5b81516001600160a01b0381168114607757600080fd5b9392505050565b6107e88061008d6000396000f3fe6080604052600436106100555760003560e01c806347ccca021461005a5780634fd809b314610097578063883efa67146100b9578063a9b07c26146100db578063de74e57b146100ff578063e7fb74c714610179575b600080fd5b34801561006657600080fd5b5060005461007a906001600160a01b031681565b6040516001600160a01b0390911681526020015b60405180910390f35b3480156100a357600080fd5b506100ac61018c565b60405161008e9190610683565b3480156100c557600080fd5b506100d96100d43660046106f4565b6102ef565b005b3480156100e757600080fd5b506100f160015481565b60405190815260200161008e565b34801561010b57600080fd5b5061014f61011a366004610716565b6002602081905260009182526040909120805460018201549282015460039092015490926001600160a01b0316919060ff1684565b604080519485526001600160a01b039093166020850152918301521515606082015260800161008e565b6100d9610187366004610716565b6104e2565b60606000805b6001548110156101cc5760008181526002602052604090206003015460ff16156101c4576101c160018361072f565b91505b600101610192565b5060008167ffffffffffffffff8111156101e8576101e8610756565b60405190808252806020026020018201604052801561023a57816020015b6040805160808101825260008082526020808301829052928201819052606082015282526000199092019101816102065790505b5090506000805b6001548110156102e65760008181526002602052604090206003015460ff16156102de5760008181526002602081815260409283902083516080810185528154815260018201546001600160a01b03169281019290925291820154928101929092526003015460ff161515606082015283518490849081106102c5576102c561076c565b60209081029190910101526102db60018361072f565b91505b600101610241565b50909392505050565b6000546040516331a9108f60e11b81526004810184905233916001600160a01b031690636352211e90602401602060405180830381865afa158015610338573d6000803e3d6000fd5b505050506040513d601f19601f8201168201806040525081019061035c9190610782565b6001600160a01b0316146103a75760405162461bcd60e51b815260206004820152600d60248201526c2737ba103a34329037bbb732b960991b60448201526064015b60405180910390fd5b6000546040516323b872dd60e01b8152336004820152306024820152604481018490526001600160a01b03909116906323b872dd90606401600060405180830381600087803b1580156103f957600080fd5b505af115801561040d573d6000803e3d6000fd5b5050604080516080810182528581523360208083018281528385018881526001606086018181528154600090815260028087529089902097518855935187830180546001600160a01b0319166001600160a01b03909216919091179055915192860192909255516003909401805460ff191694151594909417909355915483519182529181018690528694509092507fcf4ebbb01b0166b4c3bb06d2edd4860d56a19f40c14454fdeb07220bf1752924910160405180910390a360018060008282546104d9919061072f565b90915550505050565b6000818152600260205260409020600381015460ff1661053c5760405162461bcd60e51b81526020600482015260156024820152744c697374696e67206973206e6f742061637469766560581b604482015260640161039e565b80600201543410156105875760405162461bcd60e51b8152602060048201526014602482015273125b9cdd59999a58da595b9d081c185e5b595b9d60621b604482015260640161039e565b60038101805460ff1916905560005481546040516323b872dd60e01b815230600482015233602482015260448101919091526001600160a01b03909116906323b872dd90606401600060405180830381600087803b1580156105e857600080fd5b505af11580156105fc573d6000803e3d6000fd5b50505060018201546040516001600160a01b0390911691503480156108fc02916000818181858888f1935050505015801561063b573d6000803e3d6000fd5b508054600282015460408051338152602081019290925284917fffc865dadac95361c3265b19770bd4d6677fc28af384e9fe62125f3e6d89f1fd910160405180910390a35050565b602080825282518282018190526000918401906040840190835b818110156106e9578351805184526020808201516001600160a01b031681860152604080830151908601526060918201511515918501919091529093019260809092019160010161069d565b509095945050505050565b6000806040838503121561070757600080fd5b50508035926020909101359150565b60006020828403121561072857600080fd5b5035919050565b8082018082111561075057634e487b7160e01b600052601160045260246000fd5b92915050565b634e487b7160e01b600052604160045260246000fd5b634e487b7160e01b600052603260045260246000fd5b60006020828403121561079457600080fd5b81516001600160a01b03811681146107ab57600080fd5b939250505056fea264697066735822122076cbd3c25db2e003072492cde942a13adc48e1bfe45a29c8c6e75bfc9410478764736f6c634300081b0033",
    "linkReferences": {},
    "deployedLinkReferences": {}
}